:020000040800F2
:100000008009002005010008671500082713000873
:10001000651500089D010008151B00080000000080
:100020000000000000000000000000005718000859
:10003000410300080000000055180008B11800082E
:100040001F0100081F0100081F0100081F01000810
:100050001F0100081F0100081F0100081F01000800
:100060001F0100081F0100081F0100081F010008F0
:100070001F0100081F0100081F0100081F010008E0
:100080001F0100081F0100081F0100081F010008D0
:100090001F0100081F0100081F0100081F010008C0
:1000A0001F0100081F0100081F0100081F010008B0
:1000B0001F010008151900081F0100081F01000892
:1000C0001F0100081F0100081F0100081F01000890
:1000D0001F0100081F0100081F0100081F01000880
:1000E0001F0100081F0100081F010008DFF810D0E1
:1000F00000F042F800480047491D0008AFF30080B7
:10010000800900200648804706480047FEE7FEE7D2
:10011000FEE7FEE7FEE7FEE7FEE7FEE7FEE7FEE7B7
:1001200013190008ED000008D2B201E000F8012B1D
:10013000491EFBD270470022F6E710B513460A4667
:1001400004461946FFF7F0FF204610BD30B50B46B8
:10015000014600202022012409E021FA02F59D42F7
:1001600005D303FA02F5491B04FA02F52844151ECB
:10017000A2F10102F1DC30BD064C074D06E0E0685B
:1001800040F0010394E8070098471034AC42F6D3DE
:10019000FFF7B0FF7436000894360008FEE7000051
:1001A00070B500244FF47A750DE00120641C01F055
:1001B000A5FDAC4207D900F03BF8014615A001F0BF
:1001C000ABFC012070BD00F033F80028EDD1002415
:1001D0000AE00120641C01F091FD642C04D910A0F8
:1001E00001F09AFC022070BD00F022F80028F0D047
:1001F00000240AE00120641C01F080FD642C04D975
:1002000009A001F089FC032070BD00F011F800285E
:10021000F0D170BD74657374313A25640D0A000025
:1002200074657374320D0A0074657374330D0A00BB
:1002300010B5074C4021204600F076F9012806D081
:100240004021204600F070F9002800D0022010BDA7
:100250000008014070B50024254602E0012001F0AD
:100260004DFDFFF7E5FF0028F8D0282001F046FDFE
:100270006006040EFFF7DCFF012809D144F00104F9
:1002800002E0012001F03AFDFFF7D2FF0028F8D18B
:100290006D1CEDB2082DE4D3204670BD2DE9FF5F43
:1002A00092468346994601224021194800F041F9BF
:1002B00000F030F8FFF774FF20B16FF0010004B0D8
:1002C000BDE8F09FFFF7C6FF0746FFF7C3FF0646EE
:1002D000FFF7C0FF0546FFF7BDFF0446FFF7BAFF73
:1002E0008046012240210A4800F023F9B819291953
:1002F0000144414509D18AF8007089F800608BF803
:100300000050019804700020D9E74FF0FF30D6E785
:100310000008014010B5094C00224021204600F0A1
:1003200008F9142001F0DCFC01224021204600F0F5
:1003300000F9BDE810401E2001F0E0BC00080140BB
:10034000704772B6FEE700002DE9F84FDFF8B8916C
:10035000002409F1040A0AF1040B23460F270BF1CC
:10036000040EC9E00125A5402A40AA427DD1674E6E
:10037000D1F804C0ACEB0608B44532D014DCBCF1B3
:10038000030F3AD009DCBCF1000F2AD0BCF1010FF9
:100390001CD0BCF1020F31D11DE0BCF1110F17D000
:1003A000BCF1120F2AD119E0B8F5881F19D006DC6C
:1003B000B8F5803F15D0B8F5801F1FD111E0B8F512
:1003C000001F0ED0B8F5041F18D10AE0CB6815E065
:1003D000CB681B1D12E0CB6808330FE0CB680C33F1
:1003E0000CE08B682BB1012B4FF0080303D0456163
:1003F00004E0042302E0056100E00023FF2A01D8A5
:10040000064601E000F104064FEA840501D9A5F192
:100410002005D6F8008007FA05FC28EA0C0803FA44
:1004200005F548EA0508C6F800804D68ED0062D57C
:10043000374DAE6946F00106AE61AD6924F00306A2
:1004400005F001050095334D06EB050CDCF808506E
:10045000A607360F07FA06F825EA0805DFF8B88080
:10046000404503D14FF0000817E044E0DFF8AC80CE
:10047000404502D14FF001080FE0DFF8A48040456D
:1004800002D14FF0020808E0DFF89880404502D121
:100490004FF0030801E04FF0040808FA06F848EAB4
:1004A0000508CCF808804D68D9F80060ED034D468A
:1004B00001D5164300E096432E604D68DAF80060DF
:1004C000AD03554601D5164300E096432E604D68B6
:1004D000DBF80060ED025D4601D5164300E096436F
:1004E0002E604D68DEF80060AD02754601D51643FA
:1004F00000E096432E60641C0D682A46E5407FF4B8
:1005000031AFBDE8F88F0000000401400000111079
:10051000001002400000014000080140000C0140B2
:1005200000100140001401408068084000D0012004
:1005300070470AB1016170470904FBE70148806810
:10054000704700000400002070B5040025D094F826
:100550003D00002520B984F83C50204600F0B8F852
:10056000242084F83D002068016821F00101016029
:100570002068016841F4004101602068016821F4AD
:100580000041016000F002FA4D4A6168914201D8D1
:100590004C4900E04C49884201D2012070BD4B49D2
:1005A0002368B0FBF1F15E6826F03F060E435E6003
:1005B0006368934206D94FF4967359434FF47A73A4
:1005C000B1FBF3F12368491C1E6A26F03F06314354
:1005D00019626168914210D84900401EB0FBF1F2E7
:1005E000521CC2F30B02042A01D2042022E0B0FB09
:1005F000F1F0401CC0F30B001CE0A268F2B301EB69
:10060000C10303EB0116431EB3FBF6F35B1C43F47B
:1006100080431B0549D092B301EBC10202EB0111EB
:10062000401EB0FBF1F0401CC0F30B0040F48040D2
:1006300040F400402168CA694CF6FF739A431043A6
:10064000C861D4E9071001432068026822F0C002A3
:1006500011430160D4E9030101432068826848F234
:10066000FF339A4311438160D4E9050108432168AF
:10067000CA6822F0FF021043C86001E00EE016E0F5
:100680002068016841F0010101602564202084F8A0
:100690003D00256384F83E50002070BD01EB41060B
:1006A000431EB3FBF6F35B1CB3E70120C2E701EB8B
:1006B0004101401EB0FBF1F0401CC0F30B00B7E756
:1006C000A086010080841E0000093D0040420F000A
:1006D00010B586B00021009101910291039100684C
:1006E000104988421BD1104CA06940F00800A0615D
:1006F000A069694600F0080004904FF44060009043
:1007000012200190032003900848FFF71DFEE069C6
:1007100040F48000E061E06900F48000049006B0DD
:1007200010BD00000058004000100240000C0140C5
:1007300002488168027811448160704704000020FB
:10074000074810B5016841F010010160032000F076
:1007500075F80F2000F006F800F024F8002010BD16
:100760000020024070B50D4D04464FF47A71287890
:10077000B1FBF0F00A490968B1FBF0F000F0F8FABB
:1007800048B9102C07D200222146501E00F036F83E
:1007900000206C6070BD012070BD000004000020CE
:1007A000100000200C4808B5816941F00101816109
:1007B000816901F001010091C16941F08051C1617D
:1007C000C06900F0805000900448416821F0E06169
:1007D00041F00071416008BD00100240000001407E
:1007E000002809DB00F01F02012191404009800030
:1007F00000F1E020C0F8001170470000F0B40E4B8B
:100800001B680C46C3F30223C3F10705042D00D96E
:100810000425191D072901D2002300E0DB1E012653
:1008200006FA05F1491E214099409E40761E164069
:100830003143F0BC01F080B90CED00E0064900F056
:10084000070208684FF6FF03184040EA0220034AF7
:1008500010430860704700000CED00E00000FA054E
:100860002DE9F0470F46050061D0434E306800F097
:100870000700B84209D2306820F0070038433060E2
:10088000306800F00700B84251D128683B4C81071E
:1008900012D5400703D5606840F4E06060602878B6
:1008A000000703D5606840F4605060606068A96824
:1008B00020F0F000084360602878C00728D06868FE
:1008C000012810D02168022810D0890700292EDACB
:1008D000616821F0030101436160FFF72FFE80464C
:1008E00041F288390DE021688903EFE78901EDE7DE
:1008F000FFF724FEA0EB0801494502D90320BDE81B
:10090000F0876068696800F00C00B0EB810FEFD1F0
:10091000306800F00700B8420BD9306820F00700BB
:1009200038433060306800F00700B84201D0012041
:10093000E5E72878400705D56068E96820F4E060BD
:10094000084360602878000706D56068296920F4AC
:10095000605040EAC100606000F038F86168084A01
:10096000C1F30311515CC84006490860064800689D
:10097000FFF7F8FE0020C2E700200240001002400E
:100980007C1D0008100000200800002004480549D4
:1009900000684968044AC1F30221515CC8407047AD
:1009A00010000020001002408C1D0008044805497A
:1009B00000684968044AC1F3C221515CC8407047CD
:1009C00010000020001002408C1D000812A185B00C
:1009D0000FC98DE80F0014A0144A006804905168F4
:1009E000134801F00C03042B10D0082B0ED1C1F3D7
:1009F0008343C9031DF803000AD5516804AAC1F353
:100A00004041515C0A4A5043B0FBF1F005B07047D9
:100A100008494843FAE700000203040506070809ED
:100A20000A0B0C0D0E0F1010010200000010024006
:100A300000127A0000093D002DE9F84F040070D043
:100A40002078C04DC00749D06868C0F381000128F4
:100A500007D06868C0F38100022809D16868C00324
:100A600006D52868800339D560680028E7D035E0CE
:100A70006068B0F5803F0BD010B1B0F5A02F11D059
:100A8000286820F480302860286820F4802002E064
:100A9000286840F480302860606890B1FFF74EFD10
:100AA00006460AE0286840F480202860F0E700BF8E
:100AB000FFF744FD801B642873D828688003F7D5AE
:100AC0000CE0FFF73BFD064605E000BFFFF736FDF3
:100AD000801B6428F0D828688003F7D420789A4EC9
:100AE00080074FF001094FF0000839D5686810F011
:100AF0000C0F07D06868C0F38100022809D168682C
:100B0000C00306D42868800714D52069012808D1BD
:100B100010E02069B0B1C6F80090FFF70FFD07465E
:100B200005E00AE1FFF70AFDC01B0228C4D82868C7
:100B30008007F7D52868616920F0F80040EAC10015
:100B400028600DE0C6F80080FFF7F8FC074604E0D7
:100B5000FFF7F4FCC01B022823D828688007F7D4CD
:100B6000207800072CD57948A169D9B1C0F8009048
:100B7000FFF7E4FC074604E0FFF7E0FCC01B022897
:100B80000FD8686A8007F7D571484FF4FA510068AA
:100B9000B0FBF1F0009000BF0098411E0091FAD226
:100BA0000EE080E0C0F80080FFF7C8FC074604E0D4
:100BB000FFF7C4FCC01B022875D8686A8007F7D409
:100BC0002078400760D5E8690027C00008D4E869AC
:100BD00040F08050E861E869012700F08050009003
:100BE0005C480168C90513D40168834641F48071EB
:100BF0000160FFF7A3FC824606E000BFFFF79EFC02
:100C0000A0EB0A0064284ED8DBF80000C005F5D53B
:100C1000E06801280AD008B1052813D0286A20F01E
:100C200001002862286A20F0040002E0286A40F0EF
:100C300001002862E06841F2883B98B1FFF77EFC32
:100C400082460BE0286A40F004002862EEE700BF0D
:100C5000FFF774FCA0EB0A0159455AD8286A8007AF
:100C6000F6D50CE0FFF76AFC824605E0FFF766FC6C
:100C7000A0EB0A0159454CD8286A8007F6D41FB169
:100C8000E86920F08050E861E06988B36968C1F3E1
:100C90008101022944D00228C6F8608004D0FFF701
:100CA0004DFC044638E034E0FFF748FC074604E01A
:100CB000FFF744FCC01B02282BD828688001F7D41A
:100CC000206AB0F5803F05D16868A16820F4003043
:100CD00008436860D4E908010843696821F4741185
:100CE00008436860C6F86090FFF728FC044606E0F9
:100CF00025E000BFFFF722FC001B022809D8286866
:100D00008001F7D51BE000BFFFF718FC001B02288D
:100D100002D90320BDE8F88F28688001F4D40EE0E2
:100D20000128F7D06868226A00F48031914204D12A
:100D3000616A00F47010884201D00120EAE70020C7
:100D4000E8E70000001002400000424280044242F6
:100D500010000020007000404FF0E02104280869D6
:100D600003D020F004000861704740F00400FAE767
:100D700010B5401EB0F1807F01D3012010BD4FF0AF
:100D8000E02460610F21601700F0D6FE0020A06112
:100D900007202061002010BD7047704770B590F8A3
:100DA0003C20012A26D0012480F83C40022280F811
:100DB0003D2003685A689D6822F070060A68324335
:100DC0005A600D4B02689A4208D0B2F1804F05D0AC
:100DD0000A4B9A4202D00A4B9A4204D1496825F044
:100DE00080031943916080F83D40002180F83C1059
:100DF000084670BD022070BD002C01400004004078
:100E00000008004010B5040003D094F83D0010B174
:100E100007E0012010BD002084F83C00204600F0CF
:100E20001FF8022084F83D00211D206800F078FDA5
:100E3000012084F8460084F83E0084F83F0084F8DE
:100E4000400084F8410084F8420084F8430084F8AC
:100E5000440084F8450084F83D00002010BD0000E7
:100E600008B500680B49884212D10B48C16941F0AE
:100E70000201C161C069002200F002000090114629
:100E80001D20FFF7BBFCBDE808401D20FFF7A8BCF4
:100E900008BD0000000400400010024090F83D1022
:100EA000012901D001207047022180F83D1001681E
:100EB000CA6842F00102CA6000680B49884208D043
:100EC000B0F1804F05D00949884202D008498842D4
:100ED00004D1816801F00701062903D0016841F0BF
:100EE0000101016000207047002C01400004004017
:100EF0000008004070B5044690F83C00012817D067
:100F0000012584F83C50022084F83D002068826866
:100F100022F0770222F47F4282600868502830D0A5
:100F20000DDC20284DD005DC98B310283BD148E0DB
:100F3000022070BD302844D0402834D139E06028E8
:100F400028D0702806D0B0F5805F2CD0B0F5005FB7
:100F500029D10AE0CB68D1E90121206800F016FD13
:100F60002068816841F0770109E0CB68D1E901216F
:100F7000206800F00BFD2068816841F480418160A9
:100F800011E0CA684968206800F012FD502120680D
:100F900007E016E0CA684968206800F01AFD602181
:100FA000206800F0FDFC84F83D50002084F83C00EF
:100FB00070BDCA684968206800F0FAFC40212068CA
:100FC000EFE7226801461046EBE7704770B504462C
:100FD000006801694FF00005C943890715D4C1684D
:100FE000C943890711D4E91E0161012020772068D7
:100FF00080698007204602D0FFF7E7FF04E000F099
:1010000098F8204600F096F8257720680169C943D2
:10101000490717D4C168C943490713D46FF00401C5
:101020000161022020772068806910F4407F20460B
:1010300002D0FFF7CAFF04E000F07BF8204600F082
:1010400079F8257720680169C943090716D4C16872
:10105000C943090712D46FF0080101610420207709
:101060002068C0698007204602D0FFF7AEFF04E089
:1010700000F05FF8204600F05DF8257720680169F0
:10108000C943C90617D4C168C943C90613D46FF050
:1010900010010161082020772068C06910F4407FAA
:1010A000204602D0FFF791FF04E000F042F820460E
:1010B00000F040F8257720680169C943C90708D1C5
:1010C000C168C943C90704D1891E0161204600F0E7
:1010D00033F820680169C943090609D4C168C943C6
:1010E000090605D46FF0800101612046FFF754FE28
:1010F00020680169C943490609D4C168C943490642
:1011000005D46FF040010161204600F049F82068E5
:101110000169C94389060BD4C168C943890607D44C
:101120006FF0200101612046BDE87040FFF735BE39
:1011300070BD70477047000038B500681649884296
:1011400028D1164B5A1E511E481EFFF7A7F8134D03
:101150001024ED1E0094002102232A78084600F096
:101160002FFB009402236A780021322000F028FB34
:1011700000940223AA783221002000F021FB009481
:1011800032210223EA78084600F01AFBBDE8384015
:1011900000F09CBA38BD00000004004003000020AD
:1011A000704770B5040004D094F83D00002510B1DC
:1011B00006E0012070BD84F83C50204600F022F883
:1011C000242084F83D002068C16821F40051C160EA
:1011D000204600F011FC2068016921F49041016172
:1011E0002068416921F02A0141612068C16841F409
:1011F0000051C1602564202084F83D0084F83E0041
:10120000002070BD30B585B0002400940194029494
:10121000039400681449884224D11448816941F438
:1012200080418161816901F480410491816941F0CB
:101230000401816180690E4D00F0040004904FF4B8
:101240000070009002200190032003906946284618
:10125000FFF77AF82815CDE900046946284602947C
:10126000FFF772F805B030BD0038014000100240B1
:10127000000801402DE9F843044690F83D001F4660
:1012800016460D4620284CD1C5B1BEB194F83C009D
:10129000012846D0012084F83C004FF00008C4F833
:1012A0004080212084F83D00FFF748F9A68481465C
:1012B000E684A068B0F5805F03D004E00120BDE8BB
:1012C000F883206928B12E465FF0000584F83C8041
:1012D0000EE00026FAE78021204600F0E9FBA0B9E5
:1012E000AEB116F8010B21684860E08C401EE08426
:1012F000E08C4B464FF0000200970028EBD14FF0F6
:101300004001204600F0D4FB30B10320D7E735F888
:10131000020BC0F30800E6E7202084F83D0000201F
:10132000CDE70220CBE7FEE770B501220B4D54025A
:1013300021462846FFF7FDF80122160231462846CD
:10134000FFF7F7F8002221462846FFF7F2F831466A
:101350002846BDE870400022FFF7EBB8000C0140C2
:1013600070B5094C012211022046FFF7E2F865151D
:10137000002229462046FFF7DCF829462046BDE832
:1013800070400122FFF7D5B8000C014070B5012272
:10139000064D140221462846FFF7CBF82146284681
:1013A000BDE870400022FFF7C4B80000000C014007
:1013B0002DE9F04F85B000242E480094019402944A
:1013C0000394816941F010018161816901F010018C
:1013D0000491816941F020018161816901F020015E
:1013E0000491816941F004018161816901F0040186
:1013F0000491816941F0080181618069DFF878908A
:1014000000F008004FF40055049000222946484699
:10141000FFF78FF8DFF864A048F240070022394652
:101420005046FFF786F8DFF858B04CF22438002217
:1014300041465846FFF77DF80095022601250396A0
:10144000CDE9015469464846FEF77EFF00970396B2
:10145000CDE9015469465046FEF776FFCDF800808D
:101460000396CDE9015469465846FEF76DFF05B075
:10147000BDE8F08F0010024000100140000801405C
:10148000000C01400D4810B50B4901600C4941604A
:1014900000214FF480428160C0E903124161816103
:1014A000C1610162FFF750F8002803D0BDE8104089
:1014B000FEF747BF10BD0000005800401C00002090
:1014C000A086010010B586B000241748009401944E
:1014D00002940394049413490594016041F61F415A
:1014E000C0E9011442F20F71C0E903148461FFF7EF
:1014F00089FC08B1FEF725FF4FF480500090694643
:101500000948FFF7F7FC08B1FEF71BFF049404A994
:1015100005480594FFF742FC002801D0FEF711FFB3
:1015200006B010BD00040040700000200C4810B54B
:101530000A4901604FF4E1314160002181600C22D1
:10154000C160C0E904128161C161FFF72AFE002871
:1015500003D0BDE81040FEF7F4BE10BD00380140D6
:10156000B8000020FEE7FEE730B40021084B0A4631
:101570005FF0000003EBC004401CC0B2625484283A
:10158000F8D3491CC9B20829F2D330BC00F09EB888
:10159000FC000020CA0801F0070301219940044B18
:1015A00003EBC003985C61EA0000C04398547047A5
:1015B000FC000020CA0801F0070301219940034BF9
:1015C00003EBC000835C0B4383547047FC00002096
:1015D00010B50021AE2000F022F90021084600F0ED
:1015E0001EF90021102000F01AF90021402000F01F
:1015F00016F90021812000F012F90021CF2000F01F
:101600000EF90021A12000F00AF90021C82000F005
:1016100006F90021A62000F002F90021A82000F020
:10162000FEF800213F2000F0FAF80021D32000F05E
:10163000F6F80021084600F0F2F80021D52000F06D
:10164000EEF80021802000F0EAF80021D92000F017
:10165000E6F80021F12000F0E2F80021DA2000F0A5
:10166000DEF80021122000F0DAF80021DB2000F083
:10167000D6F80021402000F0D2F80021202000F010
:10168000CEF80021022000F0CAF800218D2000F0E1
:10169000C6F80021142000F0C2F80021A42000F0B8
:1016A000BEF80021A62000F0BAF80021AF2000F01B
:1016B000B6F8BDE81040FFF757BF0246012000E032
:1016C0005043491EC9B2FBD27047000070B5114E9D
:1016D000002400BF04F1B000C0B2002100F09FF868
:1016E0000021084600F09BF80021102000F097F838
:1016F0005FF0000506EBC5000121005D00F08FF8EA
:101700006D1CEDB2842DF5D3641CE4B2082CE1D33A
:1017100070BD0000FC0000202DE9FF4F1D460C4667
:101720008946580700D0012000EBD50069084843DE
:10173000203A00F0FF0A02F0FF0B002635E00C2DE6
:1017400012D0102D14D0182D31D11A490BEBCB002B
:1017500001EB80004FF00008875D214638060098B5
:101760000AD5FFF727FF09E00BEB4B001249EFE723
:10177000124901EB0B10EDE7FFF70CFF7806641C34
:10178000070EE4B2A4EB0900A84205D100984C462C
:10179000401CC0B2009006E008F1010000F0FF0814
:1017A000B8F1080FD9D3761CF6B25645C7D3BDE8B9
:1017B000FF8F0000F8270008941D00080822000889
:1017C0002DE9F0471D46DDF8208091468A46074600
:1017D00000244FEA580618E0281B401EC1B20A2018
:1017E000FFF76BFFB9FBF0F00A21B0FBF1F201FB50
:1017F000120070B13030C2B206FB0470C0B2434672
:101800005146FFF789FF641CE4B2AC42E4D3BDE863
:10181000F08706FB0470C0B243463022F0E770B593
:101820000C460546FFF780FD782000F015F8FFF71D
:10183000ADFD0CB1402000E0002000F00DF8FFF7F6
:10184000A5FD284600F008F8FFF7A0FDBDE87040B0
:10185000FFF786BD704770472DE9F041134E0546EE
:1018600000244FF400784FF4807700223946304648
:10187000FEF75FFE280601D5012200E00022414666
:101880003046FEF756FE012239463046FEF751FE3D
:10189000002239463046FEF74CFE6806641C050EF1
:1018A000E4B2082CE1D3BDE8F0810000000C014057
:1018B000FEF73EBF30B58FB028216846FEF73BFCEF
:1018C00014210AA8FEF737FC01210804CDE9001015
:1018D0000024029402250491CDE907504FF4E01052
:1018E00009906846FFF7A8F808B172B6FEE70F2026
:1018F000CDE90A054FF48060CDE90C4002210AA829
:101900000E94FEF7ADFF002801D072B6FEE70FB0CF
:1019100030BD70470148FFF759BB00007000002040
:10192000F0B50268164B174C174D4FF080479842A0
:1019300005D0B84203D0A04201D0A84203D122F082
:1019400070064A683243984205D0B84203D0A0429C
:1019500001D0A84203D122F44074CA6822434C69E2
:1019600022F08002224302608A68C2620A688262B0
:10197000984201D10969016301214161F0BD000074
:10198000002C0140000400400008004010B58468AD
:1019900042EA032224F47F440A432243826010BDBA
:1019A000826822F070020A4342F0070181607047AA
:1019B00010B5036A046A24F001040462846924F007
:1019C000F00444EA021423F00A020A43846102622A
:1019D00010BD10B5036A23F0100303628369046A23
:1019E00023F4704343EA023224F0A00343EA0111D6
:1019F0008261016210BD000070B504460068016993
:101A0000E26821F44051114301612169A068084353
:101A1000616908432168CA6841F20C639A43024332
:101A2000CA6020684169A26921F440711143416193
:101A30001E492068884202D1FEF7B8FF01E0FEF798
:101A4000A5FF00EBC00101EB00126068642180007B
:101A5000B2FBF0F3B3FBF1F36FF018067343B2FB84
:101A6000F0F5B2FBF0F605EB8305322303EB051529
:101A7000B5FBF1F5B6FBF1F605F0F00505EB061543
:101A8000B2FBF0F6B2FBF0F0B0FBF1F06FF0180231
:101A9000504306EB800003EB0010B0FBF1F021682F
:101AA00000F00F002844886070BD0000003801403D
:101AB0002DE9F041984617460E460446069D1DE066
:101AC000681C1BD02DB1FEF739FDA0EB0800A84221
:101AD00014D92068C16821F4D071C16020684169BF
:101AE00021F001014161202084F83D0084F83E008E
:101AF000002084F83C000320BDE8F08120680068E5
:101B000036EA000004D00020B842D9D00020F3E724
:101B10000120F9E7FEE700000FB4054B10B503A95B
:101B2000044A029800F028F810BC5DF814FB00008D
:101B3000311D0008180000200907090E002804DBE9
:101B400000F1E02080F80014704700F00F0000F171
:101B5000E02080F8141D704702E008C8121F08C179
:101B6000002AFAD170477047002001E001C1121F1E
:101B7000002AFBD1704700002DE9FF4F89B09B463A
:101B80000446002506E025280BD05A460B999047BD
:101B9000641C6D1C20780028F5D10DB02846BDE8E6
:101BA000F08F0027B8460122474900E0074314F8A8
:101BB000013F203B02FA03F00842F7D120782E289B
:101BC00019D114F8010F47F004072A280ED06FF03E
:101BD0002F022078A0F1300109290CD808EB8801E8
:101BE00002EB410100EB0108641CF2E70A98641C57
:101BF00050F8048B0A9020780028CED0642808D0B2
:101C0000692806D075281ED05A460B9990476D1C3E
:101C100058E00A994FF00A0901C90A91002802DA2E
:101C200040422D2102E0390504D52B218DF82010EA
:101C3000012103E0F90704D02021F7E78A4608AE26
:101C40000DE00021FAE70A994FF00A0901C90A914B
:101C5000F7E74946FEF77AFA303106F8011D002809
:101C6000F7D1ADEB060000F12009780701D44FF061
:101C70000108C84502DDA8EB090000E0002080460D
:101C8000002706E008A85A46C05D0B9990476D1CD6
:101C90007F1C5745F6DB04E030205A460B999047ED
:101CA0006D1CB8F10001A8F10108F5DC05E016F89B
:101CB000010B5A460B9990476D1CB9F10001A9F12F
:101CC0000109F4DC641C65E70928010010B504462D
:101CD0000420FFF741F80148046010BD1400002003
:101CE00070B5054600244FF47A7603E0304600F0E4
:101CF00005F8641CAC42F9D370BD000070B54FF01C
:101D0000E024002265690949A36909684843A1697B
:101D10009942FCD002D2A3EB010302E0A5EB01063D
:101D200033441A440B468242F1D370BD14000020A4
:101D300013B54FF6FF73012269460248FFF79AFA7E
:101D400000981CBDB8000020FEF7FAFCFFF7B2FDBA
:101D5000FFF72EFBFFF7EAFBFFF794FBFFF7B2FB61
:101D60004820FFF7B3FFFFF733FCFFF7FDFB024806
:101D7000FFF794F8FEE7000070000020000000006C
:101D8000000000000102030406070809000000002B
:101D90000102030400000000000000000000000039
:101DA000000000003F400000000000000000300084
:101DB000400030004000000009000BC03D000BC097
:101DC0003D00090018C024407FE02240318000001F
:101DD000180024C01B000D803240018003801C408D
:101DE00027401C80074000401000600000000000F9
:101DF000000000000000000000001F802040402084
:101E00000000402020401F80000000000900060064
:101E10001F80060009000000040004003F80040049
:101E2000040000000010006000000000000000003E
:101E3000040004000400040004000000000000404E
:101E40000000000000000000002001C00600380073
:101E5000400000001F802040204020401F800000E4
:101E6000000010403FC000400000000018C02140AA
:101E7000224024401840000010802040244024408C
:101E80001B80000002000D0011003FC00140000057
:101E90003C80244024402440238000001F802440B4
:101EA00024403440038000003000200027C0380068
:101EB000200000001B802440244024401B800000A0
:101EC0001C0022C0224022401F80000000000000B1
:101ED0000840000000000000000000000460000056
:101EE00000000000000004000A00110020804040B3
:101EF0000900090009000900090000000000404035
:101F0000208011000A000400180020002340240053
:101F1000180000001F802040274029401F4000007B
:101F2000004007C039000F0001C0004020403FC002
:101F3000244024401B8000001F802040204020407F
:101F40003080000020403FC0204020401F80000023
:101F500020403FC024402E4030C0000020403FC001
:101F600024402E00300000000F001080204022404E
:101F70003380020020403FC0040004003FC02040E6
:101F8000204020403FC02040204000000060202032
:101F900020203FC02000200020403FC024400B00F4
:101FA00030C0204020403FC020400040004000C0E2
:101FB0003FC03C0003C03C003FC0000020403FC089
:101FC0000C4023003FC020001F80204020402040C4
:101FD0001F80000020403FC0244024001800000063
:101FE0001F802140214020E01FA0000020403FC072
:101FF0002440260019C0004018C02440244022403C
:1020000031800000300020403FC020403000000000
:1020100020003F80004000403F80200020003E0024
:1020200001C0070038002000380007C03C0007C08E
:1020300038000000204039C0060039C020400000B0
:102040002000384007C0384020000000304021C048
:102050002640384020C00000000000007FE0402003
:1020600040200000000070000C00038000400000D1
:102070000000402040207FE0000000000000200021
:1020800040002000000000000010001000100010B0
:1020900000100010000000004000000000000000E0
:1020A000000002800540054003C0004020003FC002
:1020B000044004400380000000000380044004400A
:1020C0000640000000000380044024403FC0004060
:1020D000000003800540054003400000000004406C
:1020E0001FC0244024402000000002E0055005509D
:1020F0000650042020403FC00440040003C00040BC
:102100000000044027C00040000000000010001044
:10211000041027E00000000020403FC001400700FD
:1021200004C00440204020403FC000400040000068
:1021300007C0040007C0040003C00000044007C03B
:102140000440040003C00040000003800440044039
:1021500003800000041007F00450044003800000D6
:10216000000003800440045007F00010044007C042
:102170000240040004000000000006400540054045
:1021800004C00000000004001F8004400040000064
:10219000040007800040044007C00040040007001E
:1021A00004C0018006000400060001C0070001C051
:1021B00006000000044006C0010006C00440000004
:1021C0000410071004E00180060004000000044031
:1021D00005C00640044000000000000004007BE051
:1021E00040200000000000000000FFF000000000A0
:1021F000000040207BE00400000000004000800060
:10220000400020002000400000000000000000000E
:1022100000000000000000000000000000001FCCD3
:10222000000C00000000000000000800300060000A
:102230000800300060000000022003FC1E20022085
:1022400003FC1E200220000000000E1811043FFFB6
:1022500010840C78000000000F0010840F3800C0BC
:10226000077818840078000000780F8410C41124C7
:102270000E9800E400840008080068007000000068
:10228000000000000000000000000000000007E067
:102290001818200440020000000040022004181812
:1022A00007E00000000000000240024001800FF043
:1022B00001800240024000000080008000800FF892
:1022C00000800080008000000001000D000E000072
:1022D000000000000000000000000080008000807E
:1022E00000800080008000800000000C000C0000D6
:1022F0000000000000000000000000060018006060
:102300000180060018002000000007F008081004F3
:102310001004080807F000000000080408041FFC6F
:10232000000400040000000000000E0C1014102433
:10233000104411840E0C000000000C18100411044D
:10234000110412880C700000000000E00320042437
:1023500008241FFC0024000000001F9810841104B2
:102360001104108810700000000007F008881104A4
:10237000110418880070000000001C00100010FC00
:1023800013001C001000000000000E3811441084DF
:10239000108411440E38000000000700088C10441F
:1023A0001044088807F00000000000000000030C43
:1023B000030C000000000000000000000001010606
:1023C000000000000000000000000080014002202A
:1023D000041008081004000002200220022002203D
:1023E000022002200220000000001004080804104F
:1023F000022001400080000000000E001200100CBE
:10240000106C10800F00000003E00C1813E414247B
:1024100017C4082807D000000004003C03C41C4077
:10242000074000E4001C000410041FFC1104110408
:1024300011040E880070000003E00C181004100452
:10244000100410081C10000010041FFC10041004DD
:102450001004080807F0000010041FFC1104110408
:1024600017C410040818000010041FFC1104110008
:1024700017C010000800000003E00C18100410043E
:1024800010441C780040000010041FFC10840080E1
:10249000008010841FFC10040000100410041FFCB6
:1024A00010041004000000000003000110011001DE
:1024B0001FFE10001000000010041FFC1104038018
:1024C0001464181C1004000010041FFC1004000405
:1024D00000040004000C000010041FFC1F0000FC9E
:1024E0001F001FFC1004000010041FFC0C0403005C
:1024F00000E010181FFC100007F00808100410047A
:102500001004080807F0000010041FFC108410805D
:10251000108010800F00000007F00818102410240D
:10252000101C080A07F2000010041FFC110411001F
:1025300011C011300E0C000400000E1C1104108498
:10254000108410441C3800001800100010041FFCF8
:10255000100410001800000010001FF81004000400
:10256000000410041FF8100010001E0011E0001CF1
:10257000007013801C0010001FC0103C00E01F0002
:1025800000E0103C1FC000001004180C163401C0FD
:1025900001C01634180C100410001C00130400FCB9
:1025A00013041C00100000000804101C10641084A8
:1025B00013041C04101800000000000000007FFE3F
:1025C0004002400240020000000030000C00038086
:1025D0000060001C000300000000400240024002B6
:1025E0007FFE00000000000000000000200040000E
:1025F0004000400020000000000100010001000137
:102600000001000100010001000040004000200026
:1026100000000000000000000000009801240144B8
:102620000144014400FC000410001FFC0088010468
:1026300001040088007000000000007000880104A0
:1026400001040104008800000000007000880104FB
:10265000010411081FFC0004000000F801440144BB
:102660000144014400C800000000010401040FFC03
:102670001104110411001800000000D601290129DD
:10268000012901C90106000010041FFC008401009B
:102690000100010400FC000400000104190419FCFD
:1026A000000400040000000000000003000101011C
:1026B000190119FE0000000010041FFC0024004056
:1026C00001B4010C010400000000100410041FFC00
:1026D0000004000400000000010401FC01040100EA
:1026E00001FC0104010000FC010401FC0084010064
:1026F0000100010400FC0004000000F801040104D2
:102700000104010400F80000010101FF008501043B
:1027100001040088007000000000007000880104BF
:102720000104010501FF00010104010401FC008412
:102730000104010001800000000000CC01240124FC
:10274000012401240198000000000100010007F8A5
:102750000104010400000000010001F8000400046D
:102760000004010801FC0004010001800170000C5C
:10277000001001600180010001F0010C003001C077
:102780000030010C01F0010000000104018C007414
:102790000170018C01040000010101810171000E32
:1027A000001801600180010000000184010C013467
:1027B00001440184010C0000000000000000000042
:1027C00001003EFC4002400200000000000000004A
:1027D000FFFF0000000000000000400240023EFC3D
:1027E0000100000000000000000060008000800088
:1027F0004000400020002000000000000000000019
:1028000000000000000000000000000000000000C8
:1028100000000000000000000000000000000000B8
:1028200000000000000000000000000F80380FFED4
:10283000380F803800000000000000000000000099
:102840000000000000000100000600000C0000383D
:1028500000003100000600000C00003800003000CD
:10286000000000000000000061800067F807F980A8
:102870000061800061800061800061800067F8076E
:10288000F98000618000000000000000000001C02D
:10289000E003E0F00630080418081FFFFE040E08ED
:1028A0000787F00381E000000000000001F000064F
:1028B0000C00040408060C7001F9C0000E00003B77
:1028C000E000EC18070808040C180003E000000002
:1028D0000001E00007F003F818041C0804170807BB
:1028E000E1D003C0E00023B0003C08002008000055
:1028F0001000000000000001000031000032000064
:102900001C000000000000000000000000000000AB
:1029100000000000000000000000000000000000B7
:1029200000000000000000007F0001FFC00780F0F1
:102930000C0018100004200002000000000000201D
:1029400000021000040C00180780F001FFC0007F97
:102950000000000000000000000000000000000077
:10296000000000004200006600006600003C00001D
:10297000180003FFC0001800003C0000660000665D
:1029800000004200000000000800000800000800ED
:1029900000080000080001FFC00008000008000057
:1029A000080000080000080000000000000100000E
:1029B0003100003200001C00000000000000000098
:1029C0000000000000000000000000000000000007
:1029D00008000008000008000008000008000008C7
:1029E00000000800000800000800000800000000C7
:1029F000000000000000000038000038000038002F
:102A000000000000000000000000000000000000C6
:102A10000000000000000000000600001C00007024
:102A2000000180000E0000380000C0000700001CFC
:102A30000000300000000000000000007F8001FF67
:102A4000E00380700600180400080400080600185F
:102A500003807001FFE0007F8000000000000000A4
:102A6000000001000801000801000803FFF807FF4B
:102A7000F800000800000800000800000000000046
:102A800000000001C03802C0580400980401180476
:102A90000218040418061C1803F81801E0F80000D6
:102AA0000000000000000001C0E003C0F0040008C6
:102AB00004080804080806180803F41801E7F000E1
:102AC00001E0000000000000000000000300000D15
:102AD0000000110000610000810803010807FFF8F1
:102AE0000FFFF800010800010800000000000000CE
:102AF00000E007FCD00608080610080610080610BB
:102B000008061838060FF00607C000000000000095
:102B1000000000003F8001FFE00384300208180439
:102B20001008041008041008071810030FF000071D
:102B3000C000000000000000000003C0000700000B
:102B40000600000600F80607F806180006E0000771
:102B5000000006000000000000000001E1E003F7B3
:102B6000F0063410041808041808040C08040C08B3
:102B700006161803F3F001C1E00000000000000099
:102B8000F80003FC300306380402080402080402BB
:102B9000080404100308F001FFC0007F00000000DB
:102BA0000000000000000000000000000000000025
:102BB000703800703800703800000000000000001D
:102BC0000000000000000000000000000000000005
:102BD00000000000301A00301C000000000000005F
:102BE00000000000000000000000000000000008DD
:102BF000000014000022000041000080800100401D
:102C0000020020040010080008000000000000007E
:102C100021000021000021000021000021000021EE
:102C20000000210000210000210000210000000020
:102C3000000000000000080008040010020020014D
:102C400000400080800041000022000014000008C5
:102C50000000000000000003C00004C000040000E9
:102C6000080038080F380808380810000C30000732
:102C7000E00003C000000000000000003F8000FFF3
:102C8000E0038070020F1006708804C08804830877
:102C9000047F8802C09003012000FE40000008006D
:102CA00000180001F8003E0801C20007020007E218
:102CB0000000FE00001FC80001F8000038000008F6
:102CC00004000807FFF807FFF804080804080804D0
:102CD000080804080806180803F41801E7F00001C2
:102CE000E0000000000000003F8001FFE003807072
:102CF000020018040008040008040008040010067C
:102D000000200780C000000004000807FFF807FF4C
:102D1000F804000804000804000804001802001069
:102D200003807001FFE0007F8000000004000807BE
:102D3000FFF807FFF8040808040808040808040856
:102D400008043E08040008060018010060000000A6
:102D500004000807FFF807FFF80408080408000447
:102D60000800040800043E00060000060000018080
:102D700000000000000000003F8001FFE0038070C1
:102D80000600180400080402080402080203F00701
:102D900083F000020000020004000807FFF807FFAC
:102DA000F8040808000800000800000800000800F7
:102DB00004080807FFF807FFF804000800000000F7
:102DC000000004000804000804000807FFF807FFDB
:102DD000F8040008040008040008000000000000D7
:102DE00000000000000600000700000104000104CC
:102DF000000104000307FFFE07FFFC0400000400BD
:102E00000004000004000807FFF807FFF8040C089E
:102E1000001800003E0004C7800503C80600F8043F
:102E2000003804001800000804000807FFF807FF36
:102E3000F80400080000080000080000080000086E
:102E400000000800001800006000000004000807EF
:102E5000FFF807800807FC00007FC00003F80007A8
:102E6000C000780007800807FFF807FFF804000893
:102E700004000807FFF807000803C00000E0000096
:102E80003800001E000007000001C00400F007FF2A
:102E9000F8040000000000007F8001FFE003807064
:102EA000060018040008040008060018030030019A
:102EB000FFE0007F8000000004000807FFF807FF24
:102EC000F8040408040400040400040400040400DA
:102ED000060C0003F80001F00000000000000000F4
:102EE0007F8001FFE00380700600880400880400F2
:102EF000C806003C03003E01FFE6007F840000009E
:102F000004000807FFF807FFF80408080408000495
:102F10000C00040F00040BC00610F003F03801E0B1
:102F20000800000800000001E0F803F0300630104F
:102F3000041808041808040C08040C0802061802F7
:102F400007F00781E0000000018000060000040097
:102F50000004000004000807FFF807FFF804000859
:102F600004000004000006000001800004000007C7
:102F7000FFE007FFF0040018000008000008000050
:102F80000800000800000804001007FFE00400002B
:102F900004000006000007E00007FE00041FE00038
:102FA00001F80000380001E0043E0007C000060000
:102FB0000004000004000007E00007FFC0041FF841
:102FC0000007C007F80007FF80043FF80007C004AF
:102FD000F8000700000400000000000400080600DC
:102FE0001807C07805F1C8003E00001F800463E8A0
:102FF0000780F8060018040008000000040000061E
:10300000000007800007E008047C08001FF80007A4
:10301000F800180804E0080700000600000400009B
:103020000000000100080600380400F80403E8046A
:103030000F08047C0805F00807C008070018040002
:103040006000000000000000000000000000000020
:103050000000003FFFFE20000220000220000220AE
:103060000002200002000000000000000000080034
:103070000007000000C0000038000006000001C08A
:1030800000003000000E0000010000000000000001
:103090000000200002200002200002200002200088
:1030A000023FFFFE000000000000000000000000E2
:1030B00000000000000000000008000010000030C8
:1030C0000000200000300000100000080000000098
:1030D00000000000000001000001000001000001EC
:1030E00000000100000100000100000100000100DB
:1030F00000010000010000010000000000000000CD
:10310000002000002000001000001000000000005F
:1031100000000000000000000000000000000000AF
:1031200000F00019F8001B180022080026080024EF
:1031300008002410003FF8001FF8000008000018E5
:1031400000000004000007FFF80FFFF0001818004F
:103150001008002008002008003018001FF0000FA1
:10316000C00000000000000007C0001FF000183081
:10317000002008002008002008003C08001C100067
:1031800000600000000000000000000007C0001FF9
:10319000F000381800200800200800200804101053
:1031A00007FFF80FFFF00000100000000000000013
:1031B00000000007C0001FF000123000221800229B
:1031C00008002208003208001E10000E2000000037
:1031D00000000000200000200800200801FFF80384
:1031E000FFF8062008042008042008072000030038
:1031F0000000000000000000000E000E6E001FF333
:103200000031B10020B10020B1003191001F130046
:103210002E1E00200E00300000000004000807FFF2
:10322000F80FFFF800100800200000200000200820
:10323000003FF8001FF80000080000000000000038
:103240000000002008002008002008063FF8063F84
:10325000F80000080000080000080000000000005E
:103260000000000000000000030000030020010037
:103270002001002003063FFE063FFC000000000086
:103280000000000000000004000807FFF80FFFF82E
:10329000000188000300002FC00038F8002038002B
:1032A00020080000080000000000000000000400EA
:1032B0000804000804000807FFF80FFFF8000008E2
:1032C00000000800000800000000000000200800C6
:1032D0003FF8003FF8001008002000003FF8003FD2
:1032E000F8001008002000003FF8003FF800000838
:1032F000000000002008003FF8003FF80010080020
:103300001000002000002008003FF8001FF8000017
:10331000080000000000000007C0000FF000183097
:103320000030080020080020080030080018300095
:103330000FF00007C0000000000000002001003F67
:10334000FF003FFF001011002009002008002008A6
:10335000003038001FF0000FC00000000000000027
:1033600007C0001FF00038180020080020080020C7
:1033700009001011001FFF003FFF000001000000C6
:10338000002008002008002008003FF8003FF80057
:10339000080800100800200800200000300000305D
:1033A00000000000000000000000000C78001E1863
:1033B000003308002308002108002188002198001C
:1033C00030F0003860000000000000002000002005
:1033D0000000200000FFF003FFF800200800200894
:1033E0000020080000300000000000000000000085
:1033F0002000003FF0007FF80000180000080000E7
:1034000008002010003FF8007FF0000010000000CE
:10341000000000002000003000003C00003F800061
:1034200023F0000078000070002380003C00003092
:1034300000002000002000003C00003FE00023F8D6
:103440000000E0002700003E00003FE00021F800FF
:1034500001E0003E000020000000000020080020E5
:1034600008003838003E680027800003C8002CF8A8
:10347000003838002018002008000000000000007C
:103480002000003003003C01003F830023EC0000DB
:1034900070002380003C000020000020000000009D
:1034A0000000000000000038080020380020F8006C
:1034B00023E8002F88003E0800380800201800008C
:1034C000700000000000000000000000000000008C
:1034D0000000000008000014001FF7FC3000062068
:1034E00000020000000000000000000000000000DA
:1034F00000000000000000000000FFFFFF000000CF
:1035000000000000000000000000000000000000BB
:1035100000002000023000061FF7FC001400000825
:10352000000000000000000000000000000000009B
:103530000000001800006000004000004000002073
:1035400000001000000800000400000400000C004F
:1035500000100000109453321E325210007E42427E
:10356000427E0000000000FF49494949494949FF9E
:103570000000000008CC4A49484ACC18007F8888DF
:103580008482E00000FF121252927F00007E888841
:103590008482E000048484FC848400040484E41CA9
:1035A000840404002060201F101004020100FF00AA
:1035B000000106001010FF101020A4ACB5A6B4AC9A
:1035C000A420200010301F0888804F3A0A0A7A8A07
:1035D0008F80E00000007E0000FF0040300F0414E8
:1035E0006404000040407E42427E4242427E4242AB
:1035F0007E4040001060028C00FE02F202FE00F8E5
:1036000000FF000004047E018047300F10270047B0
:10361000807F0000000022322AA6A26221110981C7
:1036200001000000004222130B42827E02020A12B5
:10363000234600002030AC63300088C8A8998E88EB
:10364000A8C8880022672212128040300F00003F75
:1036500040407100000000081408E010080808103D
:1036600038000000000000000000030408080808FB
:103670000402000094360008000000201C00000036
:10368000581B0008B03600081C0000206409000028
:10369000681B00080000000001000000100000008E
:1036A000000000000024F400000000000000000002
:04000005080000ED02
:00000001FF
